{
  "abi": [
    {
      "inputs": [
        {
          "internalType": "address",
          "name": "_router",
          "type": "address"
        },
        {
          "internalType": "address",
          "name": "_lendingPool",
          "type": "address"
        }
      ],
      "stateMutability": "nonpayable",
      "type": "constructor"
    },
    {
      "anonymous": false,
      "inputs": [
        {
          "indexed": false,
          "internalType": "address",
          "name": "_tokenA",
          "type": "address"
        },
        {
          "indexed": false,
          "internalType": "address",
          "name": "_tokenB",
          "type": "address"
        },
        {
          "indexed": false,
          "internalType": "uint256",
          "name": "_amount",
          "type": "uint256"
        },
        {
          "indexed": true,
          "internalType": "address",
          "name": "_onBehalfOf",
          "type": "address"
        }
      ],
      "name": "RepayDebt",
      "type": "event"
    },
    {
      "inputs": [],
      "name": "lendingPool",
      "outputs": [
        {
          "internalType": "contract ILendingPool",
          "name": "",
          "type": "address"
        }
      ],
      "stateMutability": "view",
      "type": "function"
    },
    {
      "inputs": [
        {
          "internalType": "address",
          "name": "_token",
          "type": "address"
        },
        {
          "internalType": "uint256",
          "name": "_amount",
          "type": "uint256"
        },
        {
          "internalType": "address",
          "name": "_onBehalfOf",
          "type": "address"
        }
      ],
      "name": "payDebt",
      "outputs": [],
      "stateMutability": "nonpayable",
      "type": "function"
    },
    {
      "inputs": [],
      "name": "router",
      "outputs": [
        {
          "internalType": "contract IPancakeRouter01",
          "name": "",
          "type": "address"
        }
      ],
      "stateMutability": "view",
      "type": "function"
    },
    {
      "inputs": [
        {
          "internalType": "address",
          "name": "_tokenA",
          "type": "address"
        },
        {
          "internalType": "address",
          "name": "_tokenB",
          "type": "address"
        },
        {
          "internalType": "uint256",
          "name": "_amountA",
          "type": "uint256"
        },
        {
          "internalType": "uint256",
          "name": "_amountB",
          "type": "uint256"
        }
      ],
      "name": "swap",
      "outputs": [],
      "stateMutability": "nonpayable",
      "type": "function"
    },
    {
      "inputs": [
        {
          "internalType": "address",
          "name": "_tokenA",
          "type": "address"
        },
        {
          "internalType": "address",
          "name": "_tokenB",
          "type": "address"
        },
        {
          "internalType": "uint256",
          "name": "_amountA",
          "type": "uint256"
        },
        {
          "internalType": "uint256",
          "name": "_amountB",
          "type": "uint256"
        },
        {
          "internalType": "address",
          "name": "_onBehalfOf",
          "type": "address"
        }
      ],
      "name": "swapAndPayDebt",
      "outputs": [],
      "stateMutability": "nonpayable",
      "type": "function"
    }
  ],
  "bytecode": {
    "object": "0x608060405234801561001057600080fd5b5060405161086238038061086283398101604081905261002f9161007c565b600080546001600160a01b039384166001600160a01b031991821617909155600180549290931691161790556100af565b80516001600160a01b038116811461007757600080fd5b919050565b6000806040838503121561008f57600080fd5b61009883610060565b91506100a660208401610060565b90509250929050565b6107a4806100be6000396000f3fe608060405234801561001057600080fd5b50600436106100575760003560e01c80632ca38d2d1461005c5780636e63716f14610071578063a59a997314610084578063f887ea40146100b3578063fe029156146100c6575b600080fd5b61006f61006a3660046104d6565b6100d9565b005b61006f61007f36600461052d565b610147565b600154610097906001600160a01b031681565b6040516001600160a01b03909116815260200160405180910390f35b600054610097906001600160a01b031681565b61006f6100d4366004610569565b6102c3565b6100e5858585856102c3565b6100f0858483610147565b604080516001600160a01b0387811682528681166020830152918101859052908216907f0a0f2cfa55adfbf8ce24b48370fd4203173d3600615c5411a7fef4e22cfb34cd9060600160405180910390a25050505050565b6040516323b872dd60e01b8152336004820152306024820152604481018390526001600160a01b038416906323b872dd906064016020604051808303816000875af115801561019a573d6000803e3d6000fd5b505050506040513d601f19601f820116820180604052508101906101be91906105ab565b5060015460405163095ea7b360e01b81526001600160a01b039182166004820152602481018490529084169063095ea7b3906044016020604051808303816000875af1158015610212573d6000803e3d6000fd5b505050506040513d601f19601f8201168201806040525081019061023691906105ab565b5060015460405163573ade8160e01b81526001600160a01b038581166004830152602482018590526002604483015283811660648301529091169063573ade81906084016020604051808303816000875af1158015610299573d6000803e3d6000fd5b505050506040513d601f19601f820116820180604052508101906102bd91906105d4565b50505050565b6040516323b872dd60e01b8152336004820152306024820152604481018290526001600160a01b038416906323b872dd906064016020604051808303816000875af1158015610316573d6000803e3d6000fd5b505050506040513d601f19601f8201168201806040525081019061033a91906105ab565b5060005460405163095ea7b360e01b81526001600160a01b039182166004820152602481018390529084169063095ea7b3906044016020604051808303816000875af115801561038e573d6000803e3d6000fd5b505050506040513d601f19601f820116820180604052508101906103b291906105ab565b5060408051600280825260608201835260009260208301908036833701905050905083816000815181106103e8576103e8610603565b60200260200101906001600160a01b031690816001600160a01b031681525050848160018151811061041c5761041c610603565b6001600160a01b039283166020918202929092010152600054166338ed17398385843361044b42611388610619565b6040518663ffffffff1660e01b815260040161046b95949392919061063f565b6000604051808303816000875af115801561048a573d6000803e3d6000fd5b505050506040513d6000823e601f3d908101601f191682016040526104b291908101906106b0565b505050505050565b80356001600160a01b03811681146104d157600080fd5b919050565b600080600080600060a086880312156104ee57600080fd5b6104f7866104ba565b9450610505602087016104ba565b93506040860135925060608601359150610521608087016104ba565b90509295509295909350565b60008060006060848603121561054257600080fd5b61054b846104ba565b925060208401359150610560604085016104ba565b90509250925092565b6000806000806080858703121561057f57600080fd5b610588856104ba565b9350610596602086016104ba565b93969395505050506040820135916060013590565b6000602082840312156105bd57600080fd5b815180151581146105cd57600080fd5b9392505050565b6000602082840312156105e657600080fd5b5051919050565b634e487b7160e01b600052604160045260246000fd5b634e487b7160e01b600052603260045260246000fd5b6000821982111561063a57634e487b7160e01b600052601160045260246000fd5b500190565b600060a082018783526020878185015260a0604085015281875180845260c086019150828901935060005b8181101561068f5784516001600160a01b03168352938301939183019160010161066a565b50506001600160a01b03969096166060850152505050608001529392505050565b600060208083850312156106c357600080fd5b825167ffffffffffffffff808211156106db57600080fd5b818501915085601f8301126106ef57600080fd5b815181811115610701576107016105ed565b8060051b604051601f19603f83011681018181108582111715610726576107266105ed565b60405291825284820192508381018501918883111561074457600080fd5b938501935b8285101561076257845184529385019392850192610749565b9897505050505050505056fea2646970667358221220820d125b9bc3872081ccb0dcb11e1e512b277c53258d76264aec28de2994372a64736f6c634300080d0033",
    "linkReferences": {}
  },
  "methodIdentifiers": {
    "lendingPool()": "a59a9973",
    "payDebt(address,uint256,address)": "6e63716f",
    "router()": "f887ea40",
    "swap(address,address,uint256,uint256)": "fe029156",
    "swapAndPayDebt(address,address,uint256,uint256,address)": "2ca38d2d"
  },
  "id": 23
}