{
  "abi": [
    {
      "inputs": [
        {
          "internalType": "address",
          "name": "_router",
          "type": "address"
        },
        {
          "internalType": "address",
          "name": "_lendingPool",
          "type": "address"
        }
      ],
      "stateMutability": "nonpayable",
      "type": "constructor"
    },
    {
      "inputs": [],
      "name": "lendingPool",
      "outputs": [
        {
          "internalType": "contract ILendingPool",
          "name": "",
          "type": "address"
        }
      ],
      "stateMutability": "view",
      "type": "function"
    },
    {
      "inputs": [
        {
          "internalType": "address",
          "name": "_token",
          "type": "address"
        },
        {
          "internalType": "uint256",
          "name": "_amount",
          "type": "uint256"
        },
        {
          "internalType": "address",
          "name": "_onBehalfOf",
          "type": "address"
        }
      ],
      "name": "payDebt",
      "outputs": [],
      "stateMutability": "nonpayable",
      "type": "function"
    },
    {
      "inputs": [],
      "name": "router",
      "outputs": [
        {
          "internalType": "contract IPancakeRouter01",
          "name": "",
          "type": "address"
        }
      ],
      "stateMutability": "view",
      "type": "function"
    },
    {
      "inputs": [
        {
          "internalType": "address",
          "name": "_tokenA",
          "type": "address"
        },
        {
          "internalType": "address",
          "name": "_tokenB",
          "type": "address"
        },
        {
          "internalType": "uint256",
          "name": "_amountA",
          "type": "uint256"
        },
        {
          "internalType": "uint256",
          "name": "_amountB",
          "type": "uint256"
        }
      ],
      "name": "swap",
      "outputs": [],
      "stateMutability": "nonpayable",
      "type": "function"
    },
    {
      "inputs": [
        {
          "internalType": "address",
          "name": "_tokenA",
          "type": "address"
        },
        {
          "internalType": "address",
          "name": "_tokenB",
          "type": "address"
        },
        {
          "internalType": "uint256",
          "name": "_amountA",
          "type": "uint256"
        },
        {
          "internalType": "uint256",
          "name": "_amountB",
          "type": "uint256"
        },
        {
          "internalType": "address",
          "name": "_onBehalfOf",
          "type": "address"
        }
      ],
      "name": "swapAndPayDebt",
      "outputs": [],
      "stateMutability": "nonpayable",
      "type": "function"
    }
  ],
  "bytecode": {
    "object": "0x608060405234801561001057600080fd5b5060405161081238038061081283398101604081905261002f9161007c565b600080546001600160a01b039384166001600160a01b031991821617909155600180549290931691161790556100af565b80516001600160a01b038116811461007757600080fd5b919050565b6000806040838503121561008f57600080fd5b61009883610060565b91506100a660208401610060565b90509250929050565b610754806100be6000396000f3fe608060405234801561001057600080fd5b50600436106100575760003560e01c80632ca38d2d1461005c5780636e63716f14610071578063a59a997314610084578063f887ea40146100b3578063fe029156146100c6575b600080fd5b61006f61006a366004610486565b6100d9565b005b61006f61007f3660046104dd565b6100f7565b600154610097906001600160a01b031681565b6040516001600160a01b03909116815260200160405180910390f35b600054610097906001600160a01b031681565b61006f6100d4366004610519565b610273565b6100e585858585610273565b6100f08584836100f7565b5050505050565b6040516323b872dd60e01b8152336004820152306024820152604481018390526001600160a01b038416906323b872dd906064016020604051808303816000875af115801561014a573d6000803e3d6000fd5b505050506040513d601f19601f8201168201806040525081019061016e919061055b565b5060015460405163095ea7b360e01b81526001600160a01b039182166004820152602481018490529084169063095ea7b3906044016020604051808303816000875af11580156101c2573d6000803e3d6000fd5b505050506040513d601f19601f820116820180604052508101906101e6919061055b565b5060015460405163573ade8160e01b81526001600160a01b038581166004830152602482018590526002604483015283811660648301529091169063573ade81906084016020604051808303816000875af1158015610249573d6000803e3d6000fd5b505050506040513d601f19601f8201168201806040525081019061026d9190610584565b50505050565b6040516323b872dd60e01b8152336004820152306024820152604481018290526001600160a01b038416906323b872dd906064016020604051808303816000875af11580156102c6573d6000803e3d6000fd5b505050506040513d601f19601f820116820180604052508101906102ea919061055b565b5060005460405163095ea7b360e01b81526001600160a01b039182166004820152602481018390529084169063095ea7b3906044016020604051808303816000875af115801561033e573d6000803e3d6000fd5b505050506040513d601f19601f82011682018060405250810190610362919061055b565b506040805160028082526060820183526000926020830190803683370190505090508381600081518110610398576103986105b3565b60200260200101906001600160a01b031690816001600160a01b03168152505084816001815181106103cc576103cc6105b3565b6001600160a01b039283166020918202929092010152600054166338ed1739838584336103fb426113886105c9565b6040518663ffffffff1660e01b815260040161041b9594939291906105ef565b6000604051808303816000875af115801561043a573d6000803e3d6000fd5b505050506040513d6000823e601f3d908101601f191682016040526104629190810190610660565b505050505050565b80356001600160a01b038116811461048157600080fd5b919050565b600080600080600060a0868803121561049e57600080fd5b6104a78661046a565b94506104b56020870161046a565b935060408601359250606086013591506104d16080870161046a565b90509295509295909350565b6000806000606084860312156104f257600080fd5b6104fb8461046a565b9250602084013591506105106040850161046a565b90509250925092565b6000806000806080858703121561052f57600080fd5b6105388561046a565b93506105466020860161046a565b93969395505050506040820135916060013590565b60006020828403121561056d57600080fd5b8151801515811461057d57600080fd5b9392505050565b60006020828403121561059657600080fd5b5051919050565b634e487b7160e01b600052604160045260246000fd5b634e487b7160e01b600052603260045260246000fd5b600082198211156105ea57634e487b7160e01b600052601160045260246000fd5b500190565b600060a082018783526020878185015260a0604085015281875180845260c086019150828901935060005b8181101561063f5784516001600160a01b03168352938301939183019160010161061a565b50506001600160a01b03969096166060850152505050608001529392505050565b6000602080838503121561067357600080fd5b825167ffffffffffffffff8082111561068b57600080fd5b818501915085601f83011261069f57600080fd5b8151818111156106b1576106b161059d565b8060051b604051601f19603f830116810181811085821117156106d6576106d661059d565b6040529182528482019250838101850191888311156106f457600080fd5b938501935b82851015610712578451845293850193928501926106f9565b9897505050505050505056fea264697066735822122014284736abab7223360a9ea3cb5671b92f5332141abbee182536a2a522c63dab64736f6c634300080d0033",
    "linkReferences": {}
  },
  "methodIdentifiers": {
    "lendingPool()": "a59a9973",
    "payDebt(address,uint256,address)": "6e63716f",
    "router()": "f887ea40",
    "swap(address,address,uint256,uint256)": "fe029156",
    "swapAndPayDebt(address,address,uint256,uint256,address)": "2ca38d2d"
  },
  "id": 23
}